{
  "contractName": "Color",
  "abi": [
    {
      "constant": true,
      "inputs": [
        {
          "name": "interfaceId",
          "type": "bytes4"
        }
      ],
      "name": "supportsInterface",
      "outputs": [
        {
          "name": "",
          "type": "bool"
        }
      ],
      "payable": false,
      "stateMutability": "view",
      "type": "function",
      "signature": "0x01ffc9a7"
    },
    {
      "constant": true,
      "inputs": [],
      "name": "name",
      "outputs": [
        {
          "name": "",
          "type": "string"
        }
      ],
      "payable": false,
      "stateMutability": "view",
      "type": "function",
      "signature": "0x06fdde03"
    },
    {
      "constant": true,
      "inputs": [
        {
          "name": "tokenId",
          "type": "uint256"
        }
      ],
      "name": "getApproved",
      "outputs": [
        {
          "name": "",
          "type": "address"
        }
      ],
      "payable": false,
      "stateMutability": "view",
      "type": "function",
      "signature": "0x081812fc"
    },
    {
      "constant": false,
      "inputs": [
        {
          "name": "to",
          "type": "address"
        },
        {
          "name": "tokenId",
          "type": "uint256"
        }
      ],
      "name": "approve",
      "outputs": [],
      "payable": false,
      "stateMutability": "nonpayable",
      "type": "function",
      "signature": "0x095ea7b3"
    },
    {
      "constant": true,
      "inputs": [],
      "name": "totalSupply",
      "outputs": [
        {
          "name": "",
          "type": "uint256"
        }
      ],
      "payable": false,
      "stateMutability": "view",
      "type": "function",
      "signature": "0x18160ddd"
    },
    {
      "constant": false,
      "inputs": [
        {
          "name": "from",
          "type": "address"
        },
        {
          "name": "to",
          "type": "address"
        },
        {
          "name": "tokenId",
          "type": "uint256"
        }
      ],
      "name": "transferFrom",
      "outputs": [],
      "payable": false,
      "stateMutability": "nonpayable",
      "type": "function",
      "signature": "0x23b872dd"
    },
    {
      "constant": true,
      "inputs": [
        {
          "name": "owner",
          "type": "address"
        },
        {
          "name": "index",
          "type": "uint256"
        }
      ],
      "name": "tokenOfOwnerByIndex",
      "outputs": [
        {
          "name": "",
          "type": "uint256"
        }
      ],
      "payable": false,
      "stateMutability": "view",
      "type": "function",
      "signature": "0x2f745c59"
    },
    {
      "constant": false,
      "inputs": [
        {
          "name": "from",
          "type": "address"
        },
        {
          "name": "to",
          "type": "address"
        },
        {
          "name": "tokenId",
          "type": "uint256"
        }
      ],
      "name": "safeTransferFrom",
      "outputs": [],
      "payable": false,
      "stateMutability": "nonpayable",
      "type": "function",
      "signature": "0x42842e0e"
    },
    {
      "constant": true,
      "inputs": [
        {
          "name": "",
          "type": "uint256"
        }
      ],
      "name": "allHero",
      "outputs": [
        {
          "name": "color",
          "type": "string"
        },
        {
          "name": "owner",
          "type": "address"
        },
        {
          "name": "health",
          "type": "uint256"
        },
        {
          "name": "attack",
          "type": "uint256"
        },
        {
          "name": "defence",
          "type": "uint256"
        }
      ],
      "payable": false,
      "stateMutability": "view",
      "type": "function",
      "signature": "0x4d93d8da"
    },
    {
      "constant": true,
      "inputs": [
        {
          "name": "index",
          "type": "uint256"
        }
      ],
      "name": "tokenByIndex",
      "outputs": [
        {
          "name": "",
          "type": "uint256"
        }
      ],
      "payable": false,
      "stateMutability": "view",
      "type": "function",
      "signature": "0x4f6ccce7"
    },
    {
      "constant": true,
      "inputs": [
        {
          "name": "tokenId",
          "type": "uint256"
        }
      ],
      "name": "ownerOf",
      "outputs": [
        {
          "name": "",
          "type": "address"
        }
      ],
      "payable": false,
      "stateMutability": "view",
      "type": "function",
      "signature": "0x6352211e"
    },
    {
      "constant": true,
      "inputs": [
        {
          "name": "owner",
          "type": "address"
        }
      ],
      "name": "balanceOf",
      "outputs": [
        {
          "name": "",
          "type": "uint256"
        }
      ],
      "payable": false,
      "stateMutability": "view",
      "type": "function",
      "signature": "0x70a08231"
    },
    {
      "constant": true,
      "inputs": [],
      "name": "symbol",
      "outputs": [
        {
          "name": "",
          "type": "string"
        }
      ],
      "payable": false,
      "stateMutability": "view",
      "type": "function",
      "signature": "0x95d89b41"
    },
    {
      "constant": false,
      "inputs": [
        {
          "name": "to",
          "type": "address"
        },
        {
          "name": "approved",
          "type": "bool"
        }
      ],
      "name": "setApprovalForAll",
      "outputs": [],
      "payable": false,
      "stateMutability": "nonpayable",
      "type": "function",
      "signature": "0xa22cb465"
    },
    {
      "constant": false,
      "inputs": [
        {
          "name": "from",
          "type": "address"
        },
        {
          "name": "to",
          "type": "address"
        },
        {
          "name": "tokenId",
          "type": "uint256"
        },
        {
          "name": "_data",
          "type": "bytes"
        }
      ],
      "name": "safeTransferFrom",
      "outputs": [],
      "payable": false,
      "stateMutability": "nonpayable",
      "type": "function",
      "signature": "0xb88d4fde"
    },
    {
      "constant": true,
      "inputs": [
        {
          "name": "tokenId",
          "type": "uint256"
        }
      ],
      "name": "tokenURI",
      "outputs": [
        {
          "name": "",
          "type": "string"
        }
      ],
      "payable": false,
      "stateMutability": "view",
      "type": "function",
      "signature": "0xc87b56dd"
    },
    {
      "constant": true,
      "inputs": [
        {
          "name": "owner",
          "type": "address"
        },
        {
          "name": "operator",
          "type": "address"
        }
      ],
      "name": "isApprovedForAll",
      "outputs": [
        {
          "name": "",
          "type": "bool"
        }
      ],
      "payable": false,
      "stateMutability": "view",
      "type": "function",
      "signature": "0xe985e9c5"
    },
    {
      "inputs": [],
      "payable": false,
      "stateMutability": "nonpayable",
      "type": "constructor",
      "signature": "constructor"
    },
    {
      "anonymous": false,
      "inputs": [
        {
          "indexed": true,
          "name": "from",
          "type": "address"
        },
        {
          "indexed": true,
          "name": "to",
          "type": "address"
        },
        {
          "indexed": true,
          "name": "tokenId",
          "type": "uint256"
        }
      ],
      "name": "Transfer",
      "type": "event",
      "signature": "0xddf252ad1be2c89b69c2b068fc378daa952ba7f163c4a11628f55a4df523b3ef"
    },
    {
      "anonymous": false,
      "inputs": [
        {
          "indexed": true,
          "name": "owner",
          "type": "address"
        },
        {
          "indexed": true,
          "name": "approved",
          "type": "address"
        },
        {
          "indexed": true,
          "name": "tokenId",
          "type": "uint256"
        }
      ],
      "name": "Approval",
      "type": "event",
      "signature": "0x8c5be1e5ebec7d5bd14f71427d1e84f3dd0314c0f7b2291e5b200ac8c7c3b925"
    },
    {
      "anonymous": false,
      "inputs": [
        {
          "indexed": true,
          "name": "owner",
          "type": "address"
        },
        {
          "indexed": true,
          "name": "operator",
          "type": "address"
        },
        {
          "indexed": false,
          "name": "approved",
          "type": "bool"
        }
      ],
      "name": "ApprovalForAll",
      "type": "event",
      "signature": "0x17307eab39ab6107e8899845ad3d59bd9653f200f220920489ca2b5937696c31"
    },
    {
      "constant": false,
      "inputs": [
        {
          "name": "color",
          "type": "string"
        },
        {
          "name": "h",
          "type": "uint256"
        },
        {
          "name": "a",
          "type": "uint256"
        },
        {
          "name": "d",
          "type": "uint256"
        }
      ],
      "name": "mint",
      "outputs": [],
      "payable": false,
      "stateMutability": "nonpayable",
      "type": "function",
      "signature": "0x027a2255"
    },
    {
      "constant": false,
      "inputs": [
        {
          "name": "color",
          "type": "string"
        }
      ],
      "name": "mint",
      "outputs": [],
      "payable": false,
      "stateMutability": "nonpayable",
      "type": "function",
      "signature": "0xd85d3d27"
    },
    {
      "constant": false,
      "inputs": [
        {
          "components": [
            {
              "name": "color",
              "type": "string"
            },
            {
              "name": "owner",
              "type": "address"
            },
            {
              "name": "health",
              "type": "uint256"
            },
            {
              "name": "attack",
              "type": "uint256"
            },
            {
              "name": "defence",
              "type": "uint256"
            }
          ],
          "name": "newHero",
          "type": "tuple"
        }
      ],
      "name": "mintUtil",
      "outputs": [],
      "payable": false,
      "stateMutability": "nonpayable",
      "type": "function",
      "signature": "0x16f22316"
    },
    {
      "constant": true,
      "inputs": [
        {
          "name": "s1",
          "type": "string"
        },
        {
          "name": "s2",
          "type": "string"
        }
      ],
      "name": "compareStrings",
      "outputs": [
        {
          "name": "",
          "type": "bool"
        }
      ],
      "payable": false,
      "stateMutability": "pure",
      "type": "function",
      "signature": "0xbed34bba"
    },
    {
      "constant": false,
      "inputs": [
        {
          "name": "color",
          "type": "string"
        }
      ],
      "name": "sellNFT",
      "outputs": [],
      "payable": false,
      "stateMutability": "nonpayable",
      "type": "function",
      "signature": "0xcc28cd3b"
    }
  ],
  "bytecode": "0x60806040526200007a606060405190810160405280602a81526020017f307830393138634332363438363031624638324134313533343665314341633181526020017f63303643374361374643000000000000000000000000000000000000000000008152506200026b640100000000026401000000009004565b600d60006101000a81548173ffffffffffffffffffffffffffffffffffffffff021916908373ffffffffffffffffffffffffffffffffffffffff1602179055506000600f55348015620000cc57600080fd5b506040805190810160405280600581526020017f436f6c6f720000000000000000000000000000000000000000000000000000008152506040805190810160405280600581526020017f434f4c4f520000000000000000000000000000000000000000000000000000008152508181620001786301ffc9a77c0100000000000000000000000000000000000000000000000000000000026200059c640100000000026401000000009004565b620001b56380ac58cd7c0100000000000000000000000000000000000000000000000000000000026200059c640100000000026401000000009004565b620001f263780e9d637c0100000000000000000000000000000000000000000000000000000000026200059c640100000000026401000000009004565b81600990805190602001906200020a92919062000692565b5080600a90805190602001906200022392919062000692565b5062000261635b5e139f7c0100000000000000000000000000000000000000000000000000000000026200059c640100000000026401000000009004565b505050506200079a565b6000606082905060008090506000806000600290505b602a8110156200058f57610100840293508481815181101515620002a157fe5b9060200101517f010000000000000000000000000000000000000000000000000000000000000090047f0100000000000000000000000000000000000000000000000000000000000000027f0100000000000000000000000000000000000000000000000000000000000000900460ff16925084600182018151811015156200032657fe5b9060200101517f010000000000000000000000000000000000000000000000000000000000000090047f0100000000000000000000000000000000000000000000000000000000000000027f0100000000000000000000000000000000000000000000000000000000000000900460ff16915060618373ffffffffffffffffffffffffffffffffffffffff1610158015620003d8575060668373ffffffffffffffffffffffffffffffffffffffff1611155b15620003ea5760578303925062000489565b60418373ffffffffffffffffffffffffffffffffffffffff161015801562000429575060468373ffffffffffffffffffffffffffffffffffffffff1611155b156200043b5760378303925062000488565b60308373ffffffffffffffffffffffffffffffffffffffff16101580156200047a575060398373ffffffffffffffffffffffffffffffffffffffff1611155b1562000487576030830392505b5b5b60618273ffffffffffffffffffffffffffffffffffffffff1610158015620004c8575060668273ffffffffffffffffffffffffffffffffffffffff1611155b15620004da5760578203915062000579565b60418273ffffffffffffffffffffffffffffffffffffffff161015801562000519575060468273ffffffffffffffffffffffffffffffffffffffff1611155b156200052b5760378203915062000578565b60308273ffffffffffffffffffffffffffffffffffffffff16101580156200056a575060398273ffffffffffffffffffffffffffffffffffffffff1611155b1562000577576030820391505b5b5b8160108402018401935060028101905062000281565b5082945050505050919050565b63ffffffff7c010000000000000000000000000000000000000000000000000000000002817bffffffffffffffffffffffffffffffffffffffffffffffffffffffff19161415151562000626576040517f08c379a00000000000000000000000000000000000000000000000000000000081526004016200061d9062000778565b60405180910390fd5b6001600080837bffffffffffffffffffffffffffffffffffffffffffffffffffffffff19167bffffffffffffffffffffffffffffffffffffffffffffffffffffffff1916815260200190815260200160002060006101000a81548160ff02191690831515021790555050565b828054600181600116156101000203166002900490600052602060002090601f016020900481019282601f10620006d557805160ff191683800117855562000706565b8280016001018555821562000706579182015b8281111562000705578251825591602001919060010190620006e8565b5b50905062000715919062000719565b5090565b6200073e91905b808211156200073a57600081600090555060010162000720565b5090565b90565b6000601c82527f4552433136353a20696e76616c696420696e74657266616365206964000000006020830152604082019050919050565b60006020820190508181036000830152620007938162000741565b9050919050565b61353480620007aa6000396000f3fe608060405260043610610128576000357c0100000000000000000000000000000000000000000000000000000000900463ffffffff16806301ffc9a71461012d578063027a22551461016a57806306fdde0314610193578063081812fc146101be578063095ea7b3146101fb57806316f223161461022457806318160ddd1461024d57806323b872dd146102785780632f745c59146102a157806342842e0e146102de5780634d93d8da146103075780634f6ccce7146103485780636352211e1461038557806370a08231146103c257806395d89b41146103ff578063a22cb4651461042a578063b88d4fde14610453578063bed34bba1461047c578063c87b56dd146104b9578063cc28cd3b146104f6578063d85d3d271461051f578063e985e9c514610548575b600080fd5b34801561013957600080fd5b50610154600480360361014f9190810190612773565b610585565b6040516101619190613031565b60405180910390f35b34801561017657600080fd5b50610191600480360361018c9190810190612872565b6105ec565b005b34801561019f57600080fd5b506101a861074d565b6040516101b5919061304c565b60405180910390f35b3480156101ca57600080fd5b506101e560048036036101e0919081019061292e565b6107ef565b6040516101f29190612fca565b60405180910390f35b34801561020757600080fd5b50610222600480360361021d9190810190612737565b610876565b005b34801561023057600080fd5b5061024b600480360361024691908101906128ed565b610a27565b005b34801561025957600080fd5b50610262610aeb565b60405161026f91906132e8565b60405180910390f35b34801561028457600080fd5b5061029f600480360361029a9190810190612631565b610af8565b005b3480156102ad57600080fd5b506102c860048036036102c39190810190612737565b610b53565b6040516102d591906132e8565b60405180910390f35b3480156102ea57600080fd5b5061030560048036036103009190810190612631565b610c00565b005b34801561031357600080fd5b5061032e6004803603610329919081019061292e565b610c21565b60405161033f95949392919061306e565b60405180910390f35b34801561035457600080fd5b5061036f600480360361036a919081019061292e565b610d1e565b60405161037c91906132e8565b60405180910390f35b34801561039157600080fd5b506103ac60048036036103a7919081019061292e565b610d8c565b6040516103b99190612fca565b60405180910390f35b3480156103ce57600080fd5b506103e960048036036103e491908101906125cc565b610e40565b6040516103f691906132e8565b60405180910390f35b34801561040b57600080fd5b50610414610f01565b604051610421919061304c565b60405180910390f35b34801561043657600080fd5b50610451600480360361044c91908101906126fb565b610fa3565b005b34801561045f57600080fd5b5061047a60048036036104759190810190612680565b611111565b005b34801561048857600080fd5b506104a3600480360361049e9190810190612806565b61116f565b6040516104b09190613031565b60405180910390f35b3480156104c557600080fd5b506104e060048036036104db919081019061292e565b611262565b6040516104ed919061304c565b60405180910390f35b34801561050257600080fd5b5061051d600480360361051891908101906127c5565b611361565b005b34801561052b57600080fd5b50610546600480360361054191908101906127c5565b6114c2565b005b34801561055457600080fd5b5061056f600480360361056a91908101906125f5565b61163b565b60405161057c9190613031565b60405180910390f35b6000806000837bffffffffffffffffffffffffffffffffffffffffffffffffffffffff19167bffffffffffffffffffffffffffffffffffffffffffffffffffffffff1916815260200190815260200160002060009054906101000a900460ff169050919050565b600e846040518082805190602001908083835b60208310151561062457805182526020820191506020810190506020830392506105ff565b6001836020036101000a038019825116818451168082178552505050505050905001915050908152602001604051809103902060009054906101000a900460ff1615151561067157600080fd5b610679612267565b60a0604051908101604052808681526020013373ffffffffffffffffffffffffffffffffffffffff1681526020018581526020018481526020018381525090506106c281610a27565b6001600e866040518082805190602001908083835b6020831015156106fc57805182526020820191506020810190506020830392506106d7565b6001836020036101000a038019825116818451168082178552505050505050905001915050908152602001604051809103902060006101000a81548160ff0219169083151502179055505050505050565b606060098054600181600116156101000203166002900480601f0160208091040260200160405190810160405280929190818152602001828054600181600116156101000203166002900480156107e55780601f106107ba576101008083540402835291602001916107e5565b820191906000526020600020905b8154815290600101906020018083116107c857829003601f168201915b5050505050905090565b60006107fa826116cf565b151561083b576040517f08c379a000000000000000000000000000000000000000000000000000000000815260040161083290613228565b60405180910390fd5b6002600083815260200190815260200160002060009054906101000a900473ffffffffffffffffffffffffffffffffffffffff169050919050565b600061088182610d8c565b90508073ffffffffffffffffffffffffffffffffffffffff168373ffffffffffffffffffffffffffffffffffffffff16141515156108f4576040517f08c379a00000000000000000000000000000000000000000000000000000000081526004016108eb90613288565b60405180910390fd5b8073ffffffffffffffffffffffffffffffffffffffff163373ffffffffffffffffffffffffffffffffffffffff1614806109345750610933813361163b565b5b1515610975576040517f08c379a000000000000000000000000000000000000000000000000000000000815260040161096c906131a8565b60405180910390fd5b826002600084815260200190815260200160002060006101000a81548173ffffffffffffffffffffffffffffffffffffffff021916908373ffffffffffffffffffffffffffffffffffffffff160217905550818373ffffffffffffffffffffffffffffffffffffffff168273ffffffffffffffffffffffffffffffffffffffff167f8c5be1e5ebec7d5bd14f71427d1e84f3dd0314c0f7b2291e5b200ac8c7c3b92560405160405180910390a4505050565b6000600c82908060018154018082558091505090600182039060005260206000209060050201600090919290919091506000820151816000019080519060200190610a739291906122ad565b5060208201518160010160006101000a81548173ffffffffffffffffffffffffffffffffffffffff021916908373ffffffffffffffffffffffffffffffffffffffff16021790555060408201518160020155606082015181600301556080820151816004015550509050610ae73382611741565b5050565b6000600780549050905090565b610b023382611762565b1515610b43576040517f08c379a0000000000000000000000000000000000000000000000000000000008152600401610b3a906132a8565b60405180910390fd5b610b4e838383611842565b505050565b6000610b5e83610e40565b82101515610ba1576040517f08c379a0000000000000000000000000000000000000000000000000000000008152600401610b98906130c8565b60405180910390fd5b600560008473ffffffffffffffffffffffffffffffffffffffff1673ffffffffffffffffffffffffffffffffffffffff16815260200190815260200160002082815481101515610bed57fe5b9060005260206000200154905092915050565b610c1c8383836020604051908101604052806000815250611111565b505050565b600c81815481101515610c3057fe5b9060005260206000209060050201600091509050806000018054600181600116156101000203166002900480601f016020809104026020016040519081016040528092919081815260200182805460018160011615610100020316600290048015610cdc5780601f10610cb157610100808354040283529160200191610cdc565b820191906000526020600020905b815481529060010190602001808311610cbf57829003601f168201915b5050505050908060010160009054906101000a900473ffffffffffffffffffffffffffffffffffffffff16908060020154908060030154908060040154905085565b6000610d28610aeb565b82101515610d6b576040517f08c379a0000000000000000000000000000000000000000000000000000000008152600401610d62906132c8565b60405180910390fd5b600782815481101515610d7a57fe5b90600052602060002001549050919050565b6000806001600084815260200190815260200160002060009054906101000a900473ffffffffffffffffffffffffffffffffffffffff169050600073ffffffffffffffffffffffffffffffffffffffff168173ffffffffffffffffffffffffffffffffffffffff1614151515610e37576040517f08c379a0000000000000000000000000000000000000000000000000000000008152600401610e2e906131e8565b60405180910390fd5b80915050919050565b60008073ffffffffffffffffffffffffffffffffffffffff168273ffffffffffffffffffffffffffffffffffffffff1614151515610eb3576040517f08c379a0000000000000000000000000000000000000000000000000000000008152600401610eaa906131c8565b60405180910390fd5b610efa600360008473ffffffffffffffffffffffffffffffffffffffff1673ffffffffffffffffffffffffffffffffffffffff168152602001908152602001600020611866565b9050919050565b6060600a8054600181600116156101000203166002900480601f016020809104026020016040519081016040528092919081815260200182805460018160011615610100020316600290048015610f995780601f10610f6e57610100808354040283529160200191610f99565b820191906000526020600020905b815481529060010190602001808311610f7c57829003601f168201915b5050505050905090565b3373ffffffffffffffffffffffffffffffffffffffff168273ffffffffffffffffffffffffffffffffffffffff1614151515611014576040517f08c379a000000000000000000000000000000000000000000000000000000000815260040161100b90613148565b60405180910390fd5b80600460003373ffffffffffffffffffffffffffffffffffffffff1673ffffffffffffffffffffffffffffffffffffffff16815260200190815260200160002060008473ffffffffffffffffffffffffffffffffffffffff1673ffffffffffffffffffffffffffffffffffffffff16815260200190815260200160002060006101000a81548160ff0219169083151502179055508173ffffffffffffffffffffffffffffffffffffffff163373ffffffffffffffffffffffffffffffffffffffff167f17307eab39ab6107e8899845ad3d59bd9653f200f220920489ca2b5937696c31836040516111059190613031565b60405180910390a35050565b61111c848484610af8565b61112884848484611874565b1515611169576040517f08c379a0000000000000000000000000000000000000000000000000000000008152600401611160906130e8565b60405180910390fd5b50505050565b6000816040516020018082805190602001908083835b6020831015156111aa5780518252602082019150602081019050602083039250611185565b6001836020036101000a03801982511681845116808217855250505050505090500191505060405160208183030381529060405280519060200120836040516020018082805190602001908083835b60208310151561121e57805182526020820191506020810190506020830392506111f9565b6001836020036101000a0380198251168184511680821785525050505050509050019150506040516020818303038152906040528051906020012014905092915050565b606061126d826116cf565b15156112ae576040517f08c379a00000000000000000000000000000000000000000000000000000000081526004016112a590613268565b60405180910390fd5b600b60008381526020019081526020016000208054600181600116156101000203166002900480601f0160208091040260200160405190810160405280929190818152602001828054600181600116156101000203166002900480156113555780601f1061132a57610100808354040283529160200191611355565b820191906000526020600020905b81548152906001019060200180831161133857829003601f168201915b50505050509050919050565b60008090505b600c805490508110156114bd57611436600c8281548110151561138657fe5b90600052602060002090600502016000018054600181600116156101000203166002900480601f01602080910402602001604051908101604052809291908181526020018280546001816001161561010002031660029004801561142b5780601f106114005761010080835404028352916020019161142b565b820191906000526020600020905b81548152906001019060200180831161140e57829003601f168201915b50505050508361116f565b156114b057600c8181548110151561144a57fe5b906000526020600020906005020160008082016000611469919061232d565b6001820160006101000a81549073ffffffffffffffffffffffffffffffffffffffff02191690556002820160009055600382016000905560048201600090555050506114bf565b8080600101915050611367565b505b50565b600e816040518082805190602001908083835b6020831015156114fa57805182526020820191506020810190506020830392506114d5565b6001836020036101000a038019825116818451168082178552505050505050905001915050908152602001604051809103902060009054906101000a900460ff1615151561154757600080fd5b61154f612267565b60a0604051908101604052808381526020013373ffffffffffffffffffffffffffffffffffffffff16815260200161158760646119c5565b815260200161159660646119c5565b81526020016115a560646119c5565b81525090506115b381610a27565b6001600e836040518082805190602001908083835b6020831015156115ed57805182526020820191506020810190506020830392506115c8565b6001836020036101000a038019825116818451168082178552505050505050905001915050908152602001604051809103902060006101000a81548160ff0219169083151502179055505050565b6000600460008473ffffffffffffffffffffffffffffffffffffffff1673ffffffffffffffffffffffffffffffffffffffff16815260200190815260200160002060008373ffffffffffffffffffffffffffffffffffffffff1673ffffffffffffffffffffffffffffffffffffffff16815260200190815260200160002060009054906101000a900460ff16905092915050565b6000806001600084815260200190815260200160002060009054906101000a900473ffffffffffffffffffffffffffffffffffffffff169050600073ffffffffffffffffffffffffffffffffffffffff168173ffffffffffffffffffffffffffffffffffffffff161415915050919050565b61174b8282611a63565b6117558282611c19565b61175e81611ce0565b5050565b600061176d826116cf565b15156117ae576040517f08c379a00000000000000000000000000000000000000000000000000000000081526004016117a590613188565b60405180910390fd5b60006117b983610d8c565b90508073ffffffffffffffffffffffffffffffffffffffff168473ffffffffffffffffffffffffffffffffffffffff16148061182857508373ffffffffffffffffffffffffffffffffffffffff16611810846107ef565b73ffffffffffffffffffffffffffffffffffffffff16145b806118395750611838818561163b565b5b91505092915050565b61184d838383611d2c565b6118578382611f5f565b6118618282611c19565b505050565b600081600001549050919050565b60006118958473ffffffffffffffffffffffffffffffffffffffff16612103565b15156118a457600190506119bd565b60008473ffffffffffffffffffffffffffffffffffffffff1663150b7a02338887876040518563ffffffff167c01000000000000000000000000000000000000000000000000000000000281526004016119019493929190612fe5565b602060405180830381600087803b15801561191b57600080fd5b505af115801561192f573d6000803e3d6000fd5b505050506040513d601f19601f82011682018060405250611953919081019061279c565b905063150b7a027c0100000000000000000000000000000000000000000000000000000000027bffffffffffffffffffffffffffffffffffffffffffffffffffffffff1916817bffffffffffffffffffffffffffffffffffffffffffffffffffffffff1916149150505b949350505050565b6000600f60008154809291906001019190505550814233600f54604051602001808481526020018373ffffffffffffffffffffffffffffffffffffffff1673ffffffffffffffffffffffffffffffffffffffff166c0100000000000000000000000002815260140182815260200193505050506040516020818303038152906040528051906020012060019004811515611a5b57fe5b069050919050565b600073ffffffffffffffffffffffffffffffffffffffff168273ffffffffffffffffffffffffffffffffffffffff1614151515611ad5576040517f08c379a0000000000000000000000000000000000000000000000000000000008152600401611acc90613208565b60405180910390fd5b611ade816116cf565b151515611b20576040517f08c379a0000000000000000000000000000000000000000000000000000000008152600401611b1790613108565b60405180910390fd5b816001600083815260200190815260200160002060006101000a81548173ffffffffffffffffffffffffffffffffffffffff021916908373ffffffffffffffffffffffffffffffffffffffff160217905550611bb9600360008473ffffffffffffffffffffffffffffffffffffffff1673ffffffffffffffffffffffffffffffffffffffff168152602001908152602001600020612116565b808273ffffffffffffffffffffffffffffffffffffffff16600073ffffffffffffffffffffffffffffffffffffffff167fddf252ad1be2c89b69c2b068fc378daa952ba7f163c4a11628f55a4df523b3ef60405160405180910390a45050565b600560008373ffffffffffffffffffffffffffffffffffffffff1673ffffffffffffffffffffffffffffffffffffffff168152602001908152602001600020805490506006600083815260200190815260200160002081905550600560008373ffffffffffffffffffffffffffffffffffffffff1673ffffffffffffffffffffffffffffffffffffffff1681526020019081526020016000208190806001815401808255809150509060018203906000526020600020016000909192909190915055505050565b6007805490506008600083815260200190815260200160002081905550600781908060018154018082558091505090600182039060005260206000200160009091929091909150555050565b8273ffffffffffffffffffffffffffffffffffffffff16611d4c82610d8c565b73ffffffffffffffffffffffffffffffffffffffff16141515611da4576040517f08c379a0000000000000000000000000000000000000000000000000000000008152600401611d9b90613248565b60405180910390fd5b600073ffffffffffffffffffffffffffffffffffffffff168273ffffffffffffffffffffffffffffffffffffffff1614151515611e16576040517f08c379a0000000000000000000000000000000000000000000000000000000008152600401611e0d90613128565b60405180910390fd5b611e1f8161212c565b611e66600360008573ffffffffffffffffffffffffffffffffffffffff1673ffffffffffffffffffffffffffffffffffffffff1681526020019081526020016000206121ec565b611ead600360008473ffffffffffffffffffffffffffffffffffffffff1673ffffffffffffffffffffffffffffffffffffffff168152602001908152602001600020612116565b816001600083815260200190815260200160002060006101000a81548173ffffffffffffffffffffffffffffffffffffffff021916908373ffffffffffffffffffffffffffffffffffffffff160217905550808273ffffffffffffffffffffffffffffffffffffffff168473ffffffffffffffffffffffffffffffffffffffff167fddf252ad1be2c89b69c2b068fc378daa952ba7f163c4a11628f55a4df523b3ef60405160405180910390a4505050565b6000611fb76001600560008673ffffffffffffffffffffffffffffffffffffffff1673ffffffffffffffffffffffffffffffffffffffff1681526020019081526020016000208054905061220f90919063ffffffff16565b905060006006600084815260200190815260200160002054905081811415156120aa576000600560008673ffffffffffffffffffffffffffffffffffffffff1673ffffffffffffffffffffffffffffffffffffffff1681526020019081526020016000208381548110151561202857fe5b9060005260206000200154905080600560008773ffffffffffffffffffffffffffffffffffffffff1673ffffffffffffffffffffffffffffffffffffffff1681526020019081526020016000208381548110151561208257fe5b9060005260206000200181905550816006600083815260200190815260200160002081905550505b600560008573ffffffffffffffffffffffffffffffffffffffff1673ffffffffffffffffffffffffffffffffffffffff1681526020019081526020016000208054809190600190036120fc9190612375565b5050505050565b600080823b905060008111915050919050565b6001816000016000828254019250508190555050565b600073ffffffffffffffffffffffffffffffffffffffff166002600083815260200190815260200160002060009054906101000a900473ffffffffffffffffffffffffffffffffffffffff1673ffffffffffffffffffffffffffffffffffffffff161415156121e95760006002600083815260200190815260200160002060006101000a81548173ffffffffffffffffffffffffffffffffffffffff021916908373ffffffffffffffffffffffffffffffffffffffff1602179055505b50565b6122046001826000015461220f90919063ffffffff16565b816000018190555050565b6000828211151515612256576040517f08c379a000000000000000000000000000000000000000000000000000000000815260040161224d90613168565b60405180910390fd5b600082840390508091505092915050565b60a06040519081016040528060608152602001600073ffffffffffffffffffffffffffffffffffffffff1681526020016000815260200160008152602001600081525090565b828054600181600116156101000203166002900490600052602060002090601f016020900481019282601f106122ee57805160ff191683800117855561231c565b8280016001018555821561231c579182015b8281111561231b578251825591602001919060010190612300565b5b50905061232991906123a1565b5090565b50805460018160011615610100020316600290046000825580601f106123535750612372565b601f01602090049060005260206000209081019061237191906123a1565b5b50565b81548183558181111561239c5781836000526020600020918201910161239b91906123a1565b5b505050565b6123c391905b808211156123bf5760008160009055506001016123a7565b5090565b90565b60006123d2823561341d565b905092915050565b60006123e6823561342f565b905092915050565b60006123fa823561343b565b905092915050565b600061240e825161343b565b905092915050565b600082601f830112151561242957600080fd5b813561243c61243782613330565b613303565b9150808252602083016020830185838301111561245857600080fd5b6124638382846134a7565b50505092915050565b600082601f830112151561247f57600080fd5b813561249261248d8261335c565b613303565b915080825260208301602083018583830111156124ae57600080fd5b6124b98382846134a7565b50505092915050565b600082601f83011215156124d557600080fd5b81356124e86124e382613388565b613303565b9150808252602083016020830185838301111561250457600080fd5b61250f8382846134a7565b50505092915050565b600060a0828403121561252a57600080fd5b61253460a0613303565b9050600082013567ffffffffffffffff81111561255057600080fd5b61255c8482850161246c565b6000830152506020612570848285016123c6565b6020830152506040612584848285016125b8565b6040830152506060612598848285016125b8565b60608301525060806125ac848285016125b8565b60808301525092915050565b60006125c48235613467565b905092915050565b6000602082840312156125de57600080fd5b60006125ec848285016123c6565b91505092915050565b6000806040838503121561260857600080fd5b6000612616858286016123c6565b9250506020612627858286016123c6565b9150509250929050565b60008060006060848603121561264657600080fd5b6000612654868287016123c6565b9350506020612665868287016123c6565b9250506040612676868287016125b8565b9150509250925092565b6000806000806080858703121561269657600080fd5b60006126a4878288016123c6565b94505060206126b5878288016123c6565b93505060406126c6878288016125b8565b925050606085013567ffffffffffffffff8111156126e357600080fd5b6126ef87828801612416565b91505092959194509250565b6000806040838503121561270e57600080fd5b600061271c858286016123c6565b925050602061272d858286016123da565b9150509250929050565b6000806040838503121561274a57600080fd5b6000612758858286016123c6565b9250506020612769858286016125b8565b9150509250929050565b60006020828403121561278557600080fd5b6000612793848285016123ee565b91505092915050565b6000602082840312156127ae57600080fd5b60006127bc84828501612402565b91505092915050565b6000602082840312156127d757600080fd5b600082013567ffffffffffffffff8111156127f157600080fd5b6127fd848285016124c2565b91505092915050565b6000806040838503121561281957600080fd5b600083013567ffffffffffffffff81111561283357600080fd5b61283f858286016124c2565b925050602083013567ffffffffffffffff81111561285c57600080fd5b612868858286016124c2565b9150509250929050565b6000806000806080858703121561288857600080fd5b600085013567ffffffffffffffff8111156128a257600080fd5b6128ae878288016124c2565b94505060206128bf878288016125b8565b93505060406128d0878288016125b8565b92505060606128e1878288016125b8565b91505092959194509250565b6000602082840312156128ff57600080fd5b600082013567ffffffffffffffff81111561291957600080fd5b61292584828501612518565b91505092915050565b60006020828403121561294057600080fd5b600061294e848285016125b8565b91505092915050565b61296081613471565b82525050565b61296f816133d5565b82525050565b61297e816133e7565b82525050565b600061298f826133b4565b8084526129a38160208601602086016134b6565b6129ac816134e9565b602085010191505092915050565b60006129c5826133ca565b8084526129d98160208601602086016134b6565b6129e2816134e9565b602085010191505092915050565b60006129fb826133bf565b808452612a0f8160208601602086016134b6565b612a18816134e9565b602085010191505092915050565b6000602b82527f455243373231456e756d657261626c653a206f776e657220696e646578206f7560208301527f74206f6620626f756e64730000000000000000000000000000000000000000006040830152606082019050919050565b6000603282527f4552433732313a207472616e7366657220746f206e6f6e20455243373231526560208301527f63656976657220696d706c656d656e74657200000000000000000000000000006040830152606082019050919050565b6000601c82527f4552433732313a20746f6b656e20616c7265616479206d696e746564000000006020830152604082019050919050565b6000602482527f4552433732313a207472616e7366657220746f20746865207a65726f2061646460208301527f72657373000000000000000000000000000000000000000000000000000000006040830152606082019050919050565b6000601982527f4552433732313a20617070726f766520746f2063616c6c6572000000000000006020830152604082019050919050565b6000601e82527f536166654d6174683a207375627472616374696f6e206f766572666c6f7700006020830152604082019050919050565b6000602c82527f4552433732313a206f70657261746f7220717565727920666f72206e6f6e657860208301527f697374656e7420746f6b656e00000000000000000000000000000000000000006040830152606082019050919050565b6000603882527f4552433732313a20617070726f76652063616c6c6572206973206e6f74206f7760208301527f6e6572206e6f7220617070726f76656420666f7220616c6c00000000000000006040830152606082019050919050565b6000602a82527f4552433732313a2062616c616e636520717565727920666f7220746865207a6560208301527f726f2061646472657373000000000000000000000000000000000000000000006040830152606082019050919050565b6000602982527f4552433732313a206f776e657220717565727920666f72206e6f6e657869737460208301527f656e7420746f6b656e00000000000000000000000000000000000000000000006040830152606082019050919050565b6000602082527f4552433732313a206d696e7420746f20746865207a65726f20616464726573736020830152604082019050919050565b6000602c82527f4552433732313a20617070726f76656420717565727920666f72206e6f6e657860208301527f697374656e7420746f6b656e00000000000000000000000000000000000000006040830152606082019050919050565b6000602982527f4552433732313a207472616e73666572206f6620746f6b656e2074686174206960208301527f73206e6f74206f776e00000000000000000000000000000000000000000000006040830152606082019050919050565b6000602f82527f4552433732314d657461646174613a2055524920717565727920666f72206e6f60208301527f6e6578697374656e7420746f6b656e00000000000000000000000000000000006040830152606082019050919050565b6000602182527f4552433732313a20617070726f76616c20746f2063757272656e74206f776e6560208301527f72000000000000000000000000000000000000000000000000000000000000006040830152606082019050919050565b6000603182527f4552433732313a207472616e736665722063616c6c6572206973206e6f74206f60208301527f776e6572206e6f7220617070726f7665640000000000000000000000000000006040830152606082019050919050565b6000602c82527f455243373231456e756d657261626c653a20676c6f62616c20696e646578206f60208301527f7574206f6620626f756e647300000000000000000000000000000000000000006040830152606082019050919050565b612fc481613413565b82525050565b6000602082019050612fdf6000830184612966565b92915050565b6000608082019050612ffa6000830187612957565b6130076020830186612966565b6130146040830185612fbb565b81810360608301526130268184612984565b905095945050505050565b60006020820190506130466000830184612975565b92915050565b6000602082019050818103600083015261306681846129ba565b905092915050565b600060a082019050818103600083015261308881886129f0565b90506130976020830187612966565b6130a46040830186612fbb565b6130b16060830185612fbb565b6130be6080830184612fbb565b9695505050505050565b600060208201905081810360008301526130e181612a26565b9050919050565b6000602082019050818103600083015261310181612a83565b9050919050565b6000602082019050818103600083015261312181612ae0565b9050919050565b6000602082019050818103600083015261314181612b17565b9050919050565b6000602082019050818103600083015261316181612b74565b9050919050565b6000602082019050818103600083015261318181612bab565b9050919050565b600060208201905081810360008301526131a181612be2565b9050919050565b600060208201905081810360008301526131c181612c3f565b9050919050565b600060208201905081810360008301526131e181612c9c565b9050919050565b6000602082019050818103600083015261320181612cf9565b9050919050565b6000602082019050818103600083015261322181612d56565b9050919050565b6000602082019050818103600083015261324181612d8d565b9050919050565b6000602082019050818103600083015261326181612dea565b9050919050565b6000602082019050818103600083015261328181612e47565b9050919050565b600060208201905081810360008301526132a181612ea4565b9050919050565b600060208201905081810360008301526132c181612f01565b9050919050565b600060208201905081810360008301526132e181612f5e565b9050919050565b60006020820190506132fd6000830184612fbb565b92915050565b6000604051905081810181811067ffffffffffffffff8211171561332657600080fd5b8060405250919050565b600067ffffffffffffffff82111561334757600080fd5b601f19601f8301169050602081019050919050565b600067ffffffffffffffff82111561337357600080fd5b601f19601f8301169050602081019050919050565b600067ffffffffffffffff82111561339f57600080fd5b601f19601f8301169050602081019050919050565b600081519050919050565b600081519050919050565b600081519050919050565b60006133e0826133f3565b9050919050565b60008115159050919050565b600073ffffffffffffffffffffffffffffffffffffffff82169050919050565b6000819050919050565b6000613428826133f3565b9050919050565b60008115159050919050565b60007fffffffff0000000000000000000000000000000000000000000000000000000082169050919050565b6000819050919050565b600061347c82613483565b9050919050565b600061348e82613495565b9050919050565b60006134a0826133f3565b9050919050565b82818337600083830152505050565b60005b838110156134d45780820151818401526020810190506134b9565b838111156134e3576000848401525b50505050565b6000601f19601f830116905091905056fea265627a7a72305820ea9cd69468bf13664f7c8a7484b73bad792a68a4299460618cd6778a4e5452606c6578706572696d656e74616cf50037",
  "source": "pragma solidity ^0.5.0;\npragma experimental ABIEncoderV2;\nimport \"./ERC721Full.sol\";\n\ncontract Color is ERC721Full {\n    struct Hero {\n        string color;\n        address owner;\n        uint256 health;\n        uint256 attack;\n        uint256 defence;\n    }\n    Hero[] public allHero;\n    address market = parseAddr(\"0x0918cC2648601bF82A415346e1CAc1c06C7Ca7FC\");\n    mapping(string => bool) colorExists;\n\n    constructor() public ERC721Full(\"Color\", \"COLOR\") {}\n\n    /**Returns random uint */\n    uint256 randNonce = 0;\n\n    /**Returns a random number */\n    function random(uint256 _modulus) internal returns (uint256) {\n        randNonce++;\n        return uint256(keccak256(abi.encodePacked(now, msg.sender, randNonce))) % _modulus;\n    }\n\n    /**Minting the new Hero */\n    function mint(string memory color) public {\n        // require unique color\n        require(!colorExists[color]); //if color exits, trigger exception\n        Hero memory newHero = Hero(color, msg.sender, random(100), random(100), random(100));\n        mintUtil(newHero);\n        colorExists[color] = true;\n    }\n\n    function mint(\n        string memory color,\n        uint256 h,\n        uint256 a,\n        uint256 d\n    ) public {\n        // require unique color\n        require(!colorExists[color]); //if color exits, trigger exception\n        Hero memory newHero = Hero(color, msg.sender, h, a, d);\n        mintUtil(newHero);\n        colorExists[color] = true;\n    }\n\n    function mintUtil(Hero memory newHero) public {\n        uint256 id = allHero.push(newHero); //returns length\n        _mint(msg.sender, id);\n    }\n\n    function compareStrings(string memory s1, string memory s2) public pure returns (bool) {\n        return keccak256(abi.encodePacked(s1)) == keccak256(abi.encodePacked(s2));\n    }\n\n    function sellNFT(string memory color) public {\n        for (uint256 i = 0; i < allHero.length; i++) {\n            if (compareStrings(allHero[i].color, color)) {\n                delete allHero[i];\n                return;\n            }\n        }\n    }\n\n    function parseAddr(string memory _a) internal pure returns (address _parsedAddress) {\n        bytes memory tmp = bytes(_a);\n        uint160 iaddr = 0;\n        uint160 b1;\n        uint160 b2;\n        for (uint256 i = 2; i < 2 + 2 * 20; i += 2) {\n            iaddr *= 256;\n            b1 = uint160(uint8(tmp[i]));\n            b2 = uint160(uint8(tmp[i + 1]));\n            if ((b1 >= 97) && (b1 <= 102)) {\n                b1 -= 87;\n            } else if ((b1 >= 65) && (b1 <= 70)) {\n                b1 -= 55;\n            } else if ((b1 >= 48) && (b1 <= 57)) {\n                b1 -= 48;\n            }\n            if ((b2 >= 97) && (b2 <= 102)) {\n                b2 -= 87;\n            } else if ((b2 >= 65) && (b2 <= 70)) {\n                b2 -= 55;\n            } else if ((b2 >= 48) && (b2 <= 57)) {\n                b2 -= 48;\n            }\n            iaddr += (b1 * 16 + b2);\n        }\n        return address(iaddr);\n    }\n}\n\n/**\n 1. To create new blockchain\n sudo truffle migrate --reset\n\n 2. Open truffle console\n truffle console\n\n 3. Create contract\n contract = await Color.deployed()\n\n 4. Call any methods\n e.g. contract.colors(0)\n\n  */\n\n/**\n  TODO\n  9. Fight logic: get nft on win\n  10. Limit 30 on mint\n  11. sell nft\n   */\n\n/**\n   BUGS\n2. adding token of anything gets added to chain: make a checker for only valid hex color\n    */\n",
  "sourcePath": "/home/shrey/Desktop/IBC-project-ARS/IBC/Nft/src/contracts/Color.sol",
  "compiler": {
    "name": "solc",
    "version": "0.5.0+commit.1d4f565a.Emscripten.clang"
  },
  "schemaVersion": "3.0.2",
  "updatedAt": "2021-12-14T12:51:44.383Z",
  "devdoc": {
    "methods": {
      "approve(address,uint256)": {
        "details": "Approves another address to transfer the given token ID The zero address indicates there is no approved address. There can only be one approved address per token at a given time. Can only be called by the token owner or an approved operator.",
        "params": {
          "to": "address to be approved for the given token ID",
          "tokenId": "uint256 ID of the token to be approved"
        }
      },
      "balanceOf(address)": {
        "details": "Gets the balance of the specified address.",
        "params": {
          "owner": "address to query the balance of"
        },
        "return": "uint256 representing the amount owned by the passed address"
      },
      "getApproved(uint256)": {
        "details": "Gets the approved address for a token ID, or zero if no address set Reverts if the token ID does not exist.",
        "params": {
          "tokenId": "uint256 ID of the token to query the approval of"
        },
        "return": "address currently approved for the given token ID"
      },
      "isApprovedForAll(address,address)": {
        "details": "Tells whether an operator is approved by a given owner.",
        "params": {
          "operator": "operator address which you want to query the approval of",
          "owner": "owner address which you want to query the approval of"
        },
        "return": "bool whether the given operator is approved by the given owner"
      },
      "name()": {
        "details": "Gets the token name.",
        "return": "string representing the token name"
      },
      "ownerOf(uint256)": {
        "details": "Gets the owner of the specified token ID.",
        "params": {
          "tokenId": "uint256 ID of the token to query the owner of"
        },
        "return": "address currently marked as the owner of the given token ID"
      },
      "safeTransferFrom(address,address,uint256)": {
        "details": "Safely transfers the ownership of a given token ID to another address If the target address is a contract, it must implement `onERC721Received`, which is called upon a safe transfer, and return the magic value `bytes4(keccak256(\"onERC721Received(address,address,uint256,bytes)\"))`; otherwise, the transfer is reverted. Requires the msg.sender to be the owner, approved, or operator",
        "params": {
          "from": "current owner of the token",
          "to": "address to receive the ownership of the given token ID",
          "tokenId": "uint256 ID of the token to be transferred"
        }
      },
      "safeTransferFrom(address,address,uint256,bytes)": {
        "details": "Safely transfers the ownership of a given token ID to another address If the target address is a contract, it must implement `onERC721Received`, which is called upon a safe transfer, and return the magic value `bytes4(keccak256(\"onERC721Received(address,address,uint256,bytes)\"))`; otherwise, the transfer is reverted. Requires the msg.sender to be the owner, approved, or operator",
        "params": {
          "_data": "bytes data to send along with a safe transfer check",
          "from": "current owner of the token",
          "to": "address to receive the ownership of the given token ID",
          "tokenId": "uint256 ID of the token to be transferred"
        }
      },
      "setApprovalForAll(address,bool)": {
        "details": "Sets or unsets the approval of a given operator An operator is allowed to transfer all tokens of the sender on their behalf.",
        "params": {
          "approved": "representing the status of the approval to be set",
          "to": "operator address to set the approval"
        }
      },
      "supportsInterface(bytes4)": {
        "details": "See `IERC165.supportsInterface`.     * Time complexity O(1), guaranteed to always use less than 30 000 gas."
      },
      "symbol()": {
        "details": "Gets the token symbol.",
        "return": "string representing the token symbol"
      },
      "tokenByIndex(uint256)": {
        "details": "Gets the token ID at a given index of all the tokens in this contract Reverts if the index is greater or equal to the total number of tokens.",
        "params": {
          "index": "uint256 representing the index to be accessed of the tokens list"
        },
        "return": "uint256 token ID at the given index of the tokens list"
      },
      "tokenOfOwnerByIndex(address,uint256)": {
        "details": "Gets the token ID at a given index of the tokens list of the requested owner.",
        "params": {
          "index": "uint256 representing the index to be accessed of the requested tokens list",
          "owner": "address owning the tokens list to be accessed"
        },
        "return": "uint256 token ID at the given index of the tokens list owned by the requested address"
      },
      "tokenURI(uint256)": {
        "details": "Returns an URI for a given token ID. Throws if the token ID does not exist. May return an empty string.",
        "params": {
          "tokenId": "uint256 ID of the token to query"
        }
      },
      "totalSupply()": {
        "details": "Gets the total amount of tokens stored by the contract.",
        "return": "uint256 representing the total amount of tokens"
      },
      "transferFrom(address,address,uint256)": {
        "details": "Transfers the ownership of a given token ID to another address. Usage of this method is discouraged, use `safeTransferFrom` whenever possible. Requires the msg.sender to be the owner, approved, or operator.",
        "params": {
          "from": "current owner of the token",
          "to": "address to receive the ownership of the given token ID",
          "tokenId": "uint256 ID of the token to be transferred"
        }
      }
    }
  },
  "userdoc": {
    "methods": {
      "mint(string)": {
        "notice": "Minting the new Hero "
      }
    }
  }
}